:020000040800F2
:100000000080012021180008FD14000803150008D5
:10001000091500080F15000815150008000000005C
:100020000000000000000000000000002156000851
:100030001B15000800000000715800082915000871
:10004000711800087118000871180008711800086C
:10005000711800087118000871180008711800085C
:10006000711800087118000871180008711800084C
:10007000711800087118000871180008711800083C
:1000800071180008711800087118000800000000BD
:1000900000000000000000000000000071180008CF
:1000A000711800087118000871180008711800080C
:1000B00071180008711800087118000871180008FC
:1000C00071180008711800087118000871180008EC
:1000D000711800087118000845150008000000009C
:1000E000711800087118000871180008000000005D
:1000F000000000000000000000000000711800086F
:10010000000000007118000871180008711800083C
:1001100000000000000000000000000000000000DF
:10012000711800087118000871180008711800088B
:10013000711800080000000000000000000000002E
:10014000000000000000000000000000711800081E
:10015000711800087118000871180008711800085B
:10016000711800087118000800000000000000006D
:10017000000000000000000000000000000000007F
:1001800000000000711800080000000000000000DE
:0401900071180008DA
:1001A00010B5054C237833B9044B13B10448AFF3B1
:1001B00000800123237010BDE40100200000000036
:1001C000C8A6000808B5034B1BB103490348AFF3A9
:1001D000008008BD00000000E8010020C8A600085B
:1001E000034613F8012B002AFBD1181A0138704777
:1001F00001F0FF01102A2BDB10F0070F08D010F8D8
:10020000013B013A8B422DD010F0070F42B3F6D1DB
:10021000F0B441EA012141EA014122F007047FF0F4
:1002200000070023F0E80256083C85EA010586EA4B
:10023000010685FA47F5A3FA87F586FA47F6A5FA87
:1002400087F68EB9EED1F0BC01F0FF0102F0070293
:1002500032B110F8013B013A83EA010313B1F8D13E
:100260000020704701387047002D06BF354603381F
:10027000073815F0010F07D1013015F4807F02BF58
:10028000013015F4C03F0130F0BC0138704700BFA9
:1002900081F0004102E000BF83F0004330B54FEA37
:1002A00041044FEA430594EA050F08BF90EA020FA4
:1002B0001FBF54EA000C55EA020C7FEA645C7FEA37
:1002C000655C00F0E2804FEA5454D4EB5555B8BF5A
:1002D0006D420CDD2C4480EA020281EA030382EACB
:1002E000000083EA010180EA020281EA0303362D5D
:1002F00088BF30BD11F0004F4FEA01314FF4801C30
:100300004CEA113102D0404261EB410113F0004F41
:100310004FEA03334CEA133302D0524263EB4303F8
:1003200094EA050F00F0A780A4F10104D5F1200E96
:100330000DDB02FA0EFC22FA05F2801841F10001F1
:1003400003FA0EF2801843FA05F359410EE0A5F1C5
:1003500020050EF1200E012A03FA0EFC28BF4CF0F6
:10036000020C43FA05F3C01851EBE37101F00045AC
:1003700007D54FF0000EDCF1000C7EEB00006EEBB9
:100380000101B1F5801F1BD3B1F5001F0CD3490843
:100390005FEA30004FEA3C0C04F101044FEA44529A
:1003A00012F5800F80F09A80BCF1004F08BF5FEA21
:1003B000500C50F1000041EB045141EA050130BD01
:1003C0005FEA4C0C404141EB0101013C28BFB1F513
:1003D000801FE9D291F0000F04BF01460020B1FA5E
:1003E00081F308BF2033A3F10B03B3F120020CDA31
:1003F0000C3208DD02F1140CC2F10C0201FA0CF00F
:1004000021FA02F10CE002F11402D8BFC2F1200C73
:1004100001FA02F120FA0CFCDCBF41EA0C01904029
:10042000E41AA2BF01EB0451294330BD6FEA040472
:100430001F3C1CDA0C340EDC04F11404C4F120025D
:1004400020FA04F001FA02F340EA030021FA04F36F
:1004500045EA030130BDC4F10C04C4F1200220FAC6
:1004600002F001FA04F340EA0300294630BD21FA04
:1004700004F0294630BD94F0000F83F4801306BFCA
:1004800081F480110134013D4EE77FEA645C18BFBE
:100490007FEA655C29D094EA050F08BF90EA020F55
:1004A00005D054EA000C04BF1946104630BD91EA4D
:1004B000030F1EBF0021002030BD5FEA545C05D150
:1004C0004000494128BF41F0004130BD14F580048F
:1004D0003CBF01F5801130BD01F0004545F0FE4103
:1004E00041F470014FF0000030BD7FEA645C1ABF38
:1004F000194610467FEA655C1CBF0B46024650EA6F
:10050000013406BF52EA033591EA030F41F400219A
:1005100030BD00BF90F0000F04BF0021704730B520
:100520004FF4806404F132044FF000054FF00001F5
:1005300050E700BF90F0000F04BF0021704730B5B6
:100540004FF4806404F1320410F0004548BF40428B
:100550004FF000013EE700BF42004FEAE2014FEAE0
:1005600031014FEA02701FBF12F07F4393F07F4FBB
:1005700081F06051704732F07F4208BF704793F0BE
:100580007F4F04BF41F40021704730B54FF46074D1
:1005900001F0004521F000411CE700BF50EA0102D4
:1005A00008BF704730B54FF000050AE050EA01027D
:1005B00008BF704730B511F0004502D5404261EBED
:1005C00041014FF4806404F132045FEA915C3FF42E
:1005D000D8AE4FF003025FEADC0C18BF03325FEACB
:1005E000DC0C18BF033202EBDC02C2F1200300FA7C
:1005F00003FC20FA02F001FA03FE40EA0E0021FAA1
:1006000002F11444BDE600BF70B54FF0FF0C4CF48E
:10061000E06C1CEA11541DBF1CEA135594EA0C0F40
:1006200095EA0C0F00F0DEF82C4481EA030621EA7B
:100630004C5123EA4C5350EA013518BF52EA0335B6
:1006400041F4801143F4801338D0A0FB02CE4FF068
:100650000005E1FB02E506F00042E0FB03E54FF098
:100660000006E1FB03569CF0000F18BF4EF0010E90
:10067000A4F1FF04B6F5007F64F5407404D25FEA8C
:100680004E0E6D4146EB060642EAC62141EA55513F
:100690004FEAC52040EA5E504FEACE2EB4F1FD0C81
:1006A00088BFBCF5E06F1ED8BEF1004F08BF5FEAFF
:1006B000500E50F1000041EB045170BD06F00046B1
:1006C00046EA010140EA020081EA0301B4EB5C045E
:1006D000C2BFD4EB0C0541EA045170BD41F4801156
:1006E0004FF0000E013C00F3AB8014F1360FDEBF7B
:1006F000002001F0004170BDC4F10004203C35DA57
:100700000C341BDC04F11404C4F1200500FA05F3D9
:1007100020FA04F001FA05F240EA020001F000427A
:1007200021F0004110EBD37021FA04F642EB0601F0
:100730005EEA430E08BF20EAD37070BDC4F10C041A
:10074000C4F1200500FA04F320FA05F001FA04F2DE
:1007500040EA020001F0004110EBD37041F10001CA
:100760005EEA430E08BF20EAD37070BDC4F12005D5
:1007700000FA05F24EEA020E20FA04F301FA05F23D
:1007800043EA020321FA04F001F0004121FA04F2E5
:1007900020EA020000EBD3705EEA430E08BF20EAB5
:1007A000D37070BD94F0000F0FD101F000464000EF
:1007B00041EB010111F4801F08BF013CF7D041EA71
:1007C000060195F0000F18BF704703F00046520075
:1007D00043EB030313F4801F08BF013DF7D043EA46
:1007E0000603704794EA0C0F0CEA135518BF95EAFC
:1007F0000C0F0CD050EA410618BF52EA4306D1D183
:1008000081EA030101F000414FF0000070BD50EAA1
:10081000410606BF1046194652EA430619D094EA2B
:100820000C0F02D150EA013613D195EA0C0F05D115
:1008300052EA03361CBF104619460AD181EA030169
:1008400001F0004141F0FE4141F470014FF0000021
:1008500070BD41F0FE4141F4780170BD70B54FF0BC
:10086000FF0C4CF4E06C1CEA11541DBF1CEA13553C
:1008700094EA0C0F95EA0C0F00F0A7F8A4EB05041E
:1008800081EA030E52EA03354FEA013100F0888015
:100890004FEA03334FF0805545EA131343EA1263DE
:1008A0004FEA022245EA111545EA10654FEA002693
:1008B0000EF000419D4208BF964244F1FD0404F54C
:1008C000407402D25B084FEA3202B61A65EB0305A8
:1008D0005B084FEA32024FF480104FF4002CB6EB65
:1008E000020E75EB030E22BFB61A754640EA0C00E5
:1008F0005B084FEA3202B6EB020E75EB030E22BF25
:10090000B61A754640EA5C005B084FEA3202B6EB65
:10091000020E75EB030E22BFB61A754640EA9C0024
:100920005B084FEA3202B6EB020E75EB030E22BFF4
:10093000B61A754640EADC0055EA060E18D04FEAB2
:10094000051545EA16754FEA06164FEAC30343EA52
:1009500052734FEAC2025FEA1C1CC0D111F4801F1F
:100960000BD141EA00014FF000004FF0004CB6E718
:1009700011F4801F04BF01430020B4F1FD0C88BFB7
:10098000BCF5E06F3FF6AFAEB5EB030C04BFB6EBC2
:10099000020C5FEA500C50F1000041EB045170BDB5
:1009A0000EF0004E4EEA113114EB5C04C2BFD4EBE2
:1009B0000C0541EA045170BD41F480114FF0000E66
:1009C000013C90E645EA060E8DE60CEA135594EAE2
:1009D0000C0F08BF95EA0C0F3FF43BAF94EA0C0FE5
:1009E0000AD150EA01347FF434AF95EA0C0F7FF45A
:1009F00025AF104619462CE795EA0C0F06D152EAAE
:100A000003353FF4FDAE1046194622E750EA410691
:100A100018BF52EA43067FF4C5AE50EA41047FF4A2
:100A20000DAF52EA43057FF4EBAE12E74FF0FF3C07
:100A300006E000BF4FF0010C02E000BF4FF0010CD8
:100A40004DF804CD4FEA410C7FEA6C5C4FEA430C51
:100A500018BF7FEA6C5C1BD001B050EA410C0CBFA0
:100A600052EA430C91EA030F02BF90EA020F002002
:100A7000704710F1000F91EA030F58BF994208BF69
:100A800090422CBFD8176FEAE37040F00100704726
:100A90004FEA410C7FEA6C5C02D150EA013C07D17D
:100AA0004FEA430C7FEA6C5CD6D152EA033CD3D0C8
:100AB0005DF8040B704700BF8446104662468C46C2
:100AC0001946634600E000BF01B5FFF7B7FF0028F5
:100AD00048BF10F1000F01BD4DF808EDFFF7F4FF1E
:100AE0000CBF012000205DF808FB00BF4DF808EDA9
:100AF000FFF7EAFF34BF012000205DF808FB00BFCC
:100B00004DF808EDFFF7E0FF94BF012000205DF8ED
:100B100008FB00BF4DF808EDFFF7CEFF94BF0120A2
:100B200000205DF808FB00BF4DF808EDFFF7C4FF9B
:100B300034BF012000205DF808FB00BF4FEA410CE4
:100B40007FEA6C5C02D150EA013C0AD14FEA430CC7
:100B50007FEA6C5C02D152EA033C02D14FF0000004
:100B600070474FF0010070474FEA410212F5001242
:100B700015D211D56FF47873B3EB625212D94FEAE4
:100B8000C12343F0004343EA505311F0004F23FACE
:100B900002F018BF404270474FF00000704750EA23
:100BA000013005D111F0004008BF6FF000407047E0
:100BB0004FF00000704700BF4A0011D212F500123A
:100BC00011D20DD56FF47873B3EB62520ED44FEAA5
:100BD000C12343F0004343EA505323FA02F0704725
:100BE0004FF00000704750EA013002D14FF0FF3063
:100BF00070474FF0000070474FEA4102B2F1E04306
:100C000024BFB3F5001CDCF1FE5C0DD901F0004CF3
:100C10004FEAC0024CEA5070B2F1004F40EB830043
:100C200008BF20F00100704711F0804F21D113F16F
:100C30003872BCBF01F00040704741F480114FEAA8
:100C40005252C2F11802C2F1200C10FA0CF320FA31
:100C500002F018BF40F001004FEAC1234FEAD3234E
:100C600003FA0CFC40EA0C0023FA02F34FEA4303B8
:100C7000CCE77FEA625307D150EA01331EBF4FF041
:100C8000FE4040F44000704701F0004040F0FE405C
:100C900040F40000704700BF53B94AB9002908BFAB
:100CA00000281CBF4FF0FF314FF0FF3000F0AAB911
:100CB000ADF1080C6DE904CE00F03CF8DDF804E07D
:100CC000DDE9022304B0704738B500220023044652
:100CD0000D46FFF70BFF28B920462946BDE83840EE
:100CE00000F00AB8204605F1004100F005F8404246
:100CF00061EB410138BD00BFD0B50C4B0022064668
:100D00000F46FFF781FCFFF757FF0446FFF702FC91
:100D1000074B0022FFF778FC02460B463046394667
:100D2000FFF7BAFAFFF748FF2146D0BD0000F03DBB
:100D30000000F0412DE9F047089D04468E46002B47
:100D40004DD18A42944669D9B2FA82F252B101FA7F
:100D500002F3C2F1200120FA01F10CFA02FC41EA8F
:100D6000030E94404FEA1C48210CBEFBF8F61FFA14
:100D70008CF708FB16E341EA034306FB07F19942AF
:100D80000AD91CEB030306F1FF3080F01F81994262
:100D900040F21C81023E63445B1AA4B2B3FBF8F03C
:100DA00008FB103344EA034400FB07F7A7420AD9C3
:100DB0001CEB040400F1FF3380F00A81A74240F2EB
:100DC00007816444023840EA0640E41B00261DB156
:100DD000D4400023C5E900433146BDE8F0878B428B
:100DE00009D9002D00F0EF800026C5E9000130464A
:100DF0003146BDE8F087B3FA83F6002E4AD18B4224
:100E000002D3824200F2F980841A61EB03030120CD
:100E10009E46002DE0D0C5E9004EDDE702B9FFDEB9
:100E2000B2FA82F2002A40F09280A1EB0C014FEA64
:100E30001C471FFA8CFE0126200CB1FBF7F307FBC1
:100E4000131140EA01410EFB03F0884208D91CEB64
:100E5000010103F1FF3802D2884200F2CB80434601
:100E6000091AA4B2B1FBF7F007FB101144EA0144E0
:100E70000EFB00FEA64508D91CEB040400F1FF316F
:100E800002D2A64500F2BB800846A4EB0E0440EA5D
:100E900003409CE7C6F12007B34022FA07FC4CEA66
:100EA000030C20FA07F401FA06F31C43F9404FEA59
:100EB0001C4900FA06F3B1FBF9F8200C1FFA8CFE6E
:100EC00009FB181140EA014108FB0EF0884202FAC2
:100ED00006F20BD91CEB010108F1FF3A80F0888083
:100EE000884240F28580A8F102086144091AA4B240
:100EF000B1FBF9F009FB101144EA014100FB0EFEC1
:100F00008E4508D91CEB010100F1FF346CD28E45EF
:100F10006AD90238614440EA0840A0FB0294A1EB80
:100F20000E01A142C846A64656D353D05DB1B3EBDD
:100F3000080261EB0E0101FA07F722FA06F3F1400D
:100F40001F43C5E9007100263146BDE8F087C2F1B4
:100F50002003D8400CFA02FC21FA03F3914001432C
:100F60004FEA1C471FFA8CFEB3FBF7F007FB103665
:100F70000B0C43EA064300FB0EF69E4204FA02F411
:100F800008D91CEB030300F1FF382FD29E422DD964
:100F9000023863449B1B89B2B3FBF7F607FB163399
:100FA00041EA034106FB0EF38B4208D91CEB010119
:100FB00006F1FF3816D28B4214D9023E6144C91A99
:100FC00046EA004638E72E46284605E70646E3E6A9
:100FD0001846F8E64B45A9D2B9EB020864EB0C0EB3
:100FE0000138A3E74646EAE7204694E74046D1E7C2
:100FF000D0467BE7023B614432E7304609E7644470
:10100000023842E7704700BF80B586B002AF0346A2
:101010000A46FB711346BB71FB791AB2BB791B02FE
:101020001BB213431BB29BB2FB8107F10E024FF4BC
:101030009673009302233C21094801F013F90346FB
:10104000002B01D000F02CFA00BF054801F02EFC67
:101050000346202BF9D100BF00BF1037BD4680BD2D
:101060005804002080B586B002AF0346FB71002310
:10107000FB73FA1D4FF49673009301233C21114832
:1010800001F0F0F80346002B01D000F009FA00BF90
:101090000C4801F00BFC0346202BF9D107F10F029D
:1010A0004FF49673009301233D21064801F0D8F9CF
:1010B0000346002B01D000F0F3F9FB7B18461037F4
:1010C000BD4680BD5804002080B584B000AF786074
:1010D0000023FB730023BB730C20FFF7C3FF034601
:1010E000FB730D20FFF7BEFF0346BB73BB7B1B02E8
:1010F0001AB2FB7B1BB213431BB29AB27B681A80F5
:1011000000BF1037BD4680BD80B485B000AFF86029
:10111000B9607A60FB68074A1A60BB68064A1A60C1
:101120007B6880221A6000BF1437BD465DF8047BDF
:10113000704700BF0402002058020020B0B588B0FC
:1011400000AF0A4B3C1D1D460FCD0FC495E80700AC
:1011500084E807003B1D0021184603F0AEFB034660
:10116000034A136000BF2037BD46B0BDECA600089F
:101170000002002080B584B000AF78600421002018
:10118000FFF742FF322003F0E4FB03210020FFF7CA
:101190003BFF322003F0DDFBC8212A20FFF734FF9C
:1011A000322003F0D6FBF4212C20FFF72DFF012184
:1011B0002C20FFF729FF322003F0CBFB0023FB7329
:1011C0000023BB730C20FFF74DFF0346FB730D207C
:1011D000FFF748FF0346BB73BB7B1B021AB2FB7BC6
:1011E0001BB213431AB2BB6892B21A8007F108030C
:1011F0001846FFF769FFBB6819460C4805F060FC0C
:10120000642003F0A6FB01222021094800F0CCFE57
:101210004FF4FA7003F09DFB00222021044800F0F7
:10122000C3FE4FF4FA7003F094FBC7E708A7000869
:101230000000024080B588B000AF07F10C03002227
:101240001A605A609A60DA601A610023BB60184B1A
:101250001B6B174A43F001031363154B1B6B03F021
:101260000103BB60BB6800237B60114B1B6B104A02
:1012700043F0020313630E4B1B6B03F002037B600E
:101280007B68002260210B4800F08EFE6023FB602B
:1012900001233B6100237B610023BB6107F10C0349
:1012A0001946044800F0FCFC00BF2037BD4680BD55
:1012B000003802400000024080B500AF124B134AD4
:1012C0001A60114B124A5A600F4B00229A600E4B63
:1012D0000022DA600C4B4FF480421A610A4B002264
:1012E0005A61094B00229A61074B0022DA61064BD2
:1012F00000221A62044800F071FE0346002B01D060
:1013000000F0CEF800BF80BD58040020005400401B
:10131000801A060080B58AB000AF786007F1140328
:1013200000221A605A609A60DA601A617B681B6852
:10133000194A93422BD100233B61184B1B6B174A70
:1013400043F002031363154B1B6B03F002033B6175
:101350003B69C0237B611223BB610023FB61032334
:101360003B6204237B6207F1140319460C4800F02A
:1013700097FC0023FB60094B1B6C084A43F40013E5
:101380001364064B1B6C03F40013FB60FB6800BF87
:101390002837BD4680BD00BF0054004000380240E1
:1013A0000004024080B500AF00F064FA00F00CF8D1
:1013B000FFF740FF00F0BAF9FFF77EFFFFF7BEFE30
:1013C00003F074FAFEE7000080B594B000AF07F1B7
:1013D000200330220021184604F0F0FC07F10C0332
:1013E00000221A605A609A60DA601A610023BB60BA
:1013F000294B1B6C284A43F080531364264B1B6C0B
:1014000003F08053BB60BB6800237B60234B1B68E9
:1014100023F44043214A43F4004313601F4B1B68ED
:1014200003F440437B607B6802233B620123FB6241
:1014300010233B630223BB630023FB6310233B6445
:101440004FF4A8737B640423BB640723FB6407F198
:101450002003184601F066FD0346002B01D000F082
:101460001FF80F23FB6002233B6100237B614FF4D5
:101470008053BB610023FB6107F10C030221184676
:1014800001F0C8FF0346002B01D000F009F800BFAF
:101490005037BD4680BD00BF00380240007000409C
:1014A00080B400AF72B600BFFEE7000080B483B026
:1014B00000AF00237B60104B5B6C0F4A43F480430A
:1014C00053640D4B5B6C03F480437B607B680023AB
:1014D0003B60094B1B6C084A43F080531364064B76
:1014E0001B6C03F080533B603B6800BF0C37BD466C
:1014F0005DF8047B704700BF0038024080B400AF45
:10150000FEE780B400AFFEE780B400AFFEE780B432
:1015100000AFFEE780B400AFFEE780B400AF00BFCD
:10152000BD465DF8047B704780B500AF00F0F4F96C
:1015300003F092FF0346012B01D004F0CDF900BF68
:1015400080BD000080B500AF024802F063FA00BF22
:1015500080BD00BFB004002080B400AF0123184656
:10156000BD465DF8047B704780B582B000AF7860FF
:10157000396004F0EBFB034616221A604FF0FF338C
:1015800018460837BD4680BD80B582B000AF786090
:101590004FF0FF317868FFF7E7FFFEE780B586B0D0
:1015A00000AFF860B9607A6000237B610AE0AFF3B6
:1015B00000800146BB685A1CBA60CAB21A707B69C7
:1015C00001337B617A697B689A42F0DB7B6818465D
:1015D0001837BD4680BD80B586B000AFF860B960F1
:1015E0007A6000237B6109E0BB685A1CBA601B78F3
:1015F000184600F089F87B6901337B617A697B6862
:101600009A42F1DB7B6818461837BD4680BD80B42E
:1016100083B000AF78604FF0FF3318460C37BD46FB
:101620005DF8047B704780B483B000AF78603960A8
:101630003B684FF400525A60002318460C37BD46F1
:101640005DF8047B704780B483B000AF78600123FD
:1016500018460C37BD465DF8047B704780B485B0F2
:1016600000AFF860B9607A60002318461437BD46B1
:101670005DF8047B7047000080B586B000AF7860ED
:10168000144A154BD31A7B617B693B61134B1B6872
:10169000002B02D1114B124A1A60104B1A687B685A
:1016A00013443A699A4207D204F050FB03460C22D5
:1016B0001A604FF0FF3309E0084B1B68FB60074BD3
:1016C0001A687B681344054A1360FB68184618378C
:1016D000BD4680BD0080012000040000AC04002055
:1016E0006042002080B400AF064BD3F88830054A32
:1016F00043F47003C2F8883000BFBD465DF8047B38
:10170000704700BF00ED00E080B582B000AF7860A8
:10171000391D4FF6FF730122034802F0E8F87B6899
:1017200018460837BD4680BDB004002080B500AF24
:10173000114B124A1A60104B4FF4E1325A600E4BB3
:1017400000229A600C4B0022DA600B4B00221A61D7
:10175000094B0C225A61084B00229A61064B002269
:10176000DA61054802F076F80346002B01D0FFF756
:1017700097FE00BF80BD00BFB004002000440040C1
:1017800080B58AB000AF786007F1140300221A60B8
:101790005A609A60DA601A617B681B681D4A93423E
:1017A00033D100233B611C4B1B6C1B4A43F40033B9
:1017B0001364194B1B6C03F400333B613B6900233A
:1017C000FB60154B1B6B144A43F001031363124B70
:1017D0001B6B03F00103FB60FB680C237B6102239E
:1017E000BB610023FB6103233B6207237B6207F19C
:1017F00014031946094800F053FA0022002126205C
:1018000000F085F9262000F09EF900BF2837BD467C
:1018100080BD00BF0044004000380240000002408C
:10182000DFF834D00D480E490E4A002302E0D458A8
:10183000C4500433C4188C42F9D30B4A0B4C002318
:1018400001E013600432A242FBD3FFF74BFF04F028
:1018500083FAFFF7A7FD70470080012000000020F9
:10186000E4010020FCAB0008E40100205C42002001
:10187000FEE7000080B500AF0E4B1B680D4A43F435
:10188000007313600B4B1B680A4A43F480631360B8
:10189000084B1B68074A43F480731360032000F071
:1018A0002BF9002000F008F8FFF700FE002318468F
:1018B00080BD00BF003C024080B582B000AF7860C0
:1018C000124B1A68124B1B7819464FF47A73B3FB0C
:1018D000F1F3B2FBF3F3184600F043F90346002B93
:1018E00001D001230EE07B680F2B0AD80022796813
:1018F0004FF0FF3000F00BF9064A7B6813600023BD
:1019000000E0012318460837BD4680BD00000020D6
:10191000080000200400002080B400AF064B1B78B4
:101920001A46064B1B681344044A136000BFBD46A9
:101930005DF8047B704700BF08000020F40400201D
:1019400080B400AF034B1B681846BD465DF8047BAE
:10195000704700BFF404002080B485B000AF786009
:101960007B6803F00703FB600C4BDB68BB60BA6865
:101970004FF6FF031340BB60FB681A02BB681343BA
:1019800043F0BF6343F40033BB60044ABB68D360D9
:1019900000BF1437BD465DF8047B704700ED00E0E2
:1019A00080B400AF044BDB681B0A03F00703184642
:1019B000BD465DF8047B704700ED00E080B483B065
:1019C00000AF0346FB7197F90730002B0BDBFB7967
:1019D00003F01F02074997F907305B09012000FA5D
:1019E00002F241F8232000BF0C37BD465DF8047BAE
:1019F000704700BF00E100E080B483B000AF034651
:101A00003960FB7197F90730002B0ADB3B68DAB2CB
:101A10000C4997F907301201D2B20B4483F8002326
:101A20000AE03B68DAB20849FB7903F00F03043B94
:101A30001201D2B20B441A7600BF0C37BD465DF8D6
:101A4000047B704700E100E000ED00E080B489B065
:101A500000AFF860B9607A60FB6803F00703FB61D0
:101A6000FB69C3F10703042B28BF0423BB61FB6997
:101A70000433062B02D9FB69033B00E000237B61A2
:101A80004FF0FF32BB6902FA03F3DA43BB681A4036
:101A90007B699A404FF0FF317B6901FA03F3D94328
:101AA0007B680B40134318462437BD465DF8047B22
:101AB0007047000080B582B000AF78607B68013B62
:101AC000B3F1807F01D301230FE00A4A7B68013B19
:101AD00053600F214FF0FF30FFF78EFF054B0022C0
:101AE0009A60044B07221A60002318460837BD4647
:101AF00080BD00BF10E000E080B582B000AF78602C
:101B00007868FFF729FF00BF0837BD4680BD80B564
:101B100086B000AF0346B9607A60FB7300237B6137
:101B2000FFF73EFF78617A68B9687869FFF78EFF42
:101B3000024697F90F3011461846FFF75DFF00BFC8
:101B40001837BD4680BD80B582B000AF0346FB713B
:101B500097F907301846FFF731FF00BF0837BD4639
:101B600080BD80B582B000AF78607868FFF7A2FFD3
:101B7000034618460837BD4680BD80B584B000AF27
:101B800078607B689B6DFB60FFF7DAFEB8607B686E
:101B900093F83530DBB2022B08D07B6880225A657F
:101BA0007B68002283F83420012352E07B681B68A5
:101BB0001A687B681B6822F016021A607B681B6833
:101BC0005A697B681B6822F080025A617B681B6C33
:101BD000002B03D17B689B6C002B07D07B681B68B4
:101BE0001A687B681B6822F008021A607B681B6811
:101BF0001A687B681B6822F001021A6013E0FFF785
:101C00009FFE0246BB68D31A052B0CD97B682022A5
:101C10005A657B68032283F835207B68002283F8AD
:101C20003420032315E07B681B681B6803F0010365
:101C3000002BE4D17B68DB6D3F229A40FB689A6001
:101C40007B68012283F835207B68002283F83420EA
:101C5000002318461037BD4680BD80B483B000AF66
:101C600078607B6893F83530DBB2022B04D07B6858
:101C700080225A6501230CE07B68052283F8352019
:101C80007B681B681A687B681B6822F001021A6077
:101C9000002318460C37BD465DF8047B70470000F2
:101CA00080B489B000AF7860396000237B61002385
:101CB0003B610023BB610023FB6159E10122FB6909
:101CC00002FA03F37B613B681B687A6913403B614E
:101CD0003A697B699A4240F048813B685B6803F04F
:101CE0000303012B05D03B685B6803F00303022B61
:101CF00030D17B689B68BB61FB695B00032202FA01
:101D000003F3DB43BA691340BB613B68DA68FB69E4
:101D10005B0002FA03F3BA691343BB617B68BA69DB
:101D20009A607B685B68BB610122FB6902FA03F37E
:101D3000DB43BA691340BB613B685B681B0903F076
:101D40000102FB6902FA03F3BA691343BB617B68C2
:101D5000BA695A603B685B6803F00303032B17D032
:101D60007B68DB68BB61FB695B00032202FA03F35B
:101D7000DB43BA691340BB613B689A68FB695B004F
:101D800002FA03F3BA691343BB617B68BA69DA608C
:101D90003B685B6803F00303022B23D1FB69DA087D
:101DA0007B68083253F82230BB61FB6903F00703FC
:101DB0009B000F2202FA03F3DB43BA691340BB61B5
:101DC0003B681A69FB6903F007039B0002FA03F3FF
:101DD000BA691343BB61FB69DA087B680832B969E9
:101DE00043F822107B681B68BB61FB695B00032220
:101DF00002FA03F3DB43BA691340BB613B685B68DB
:101E000003F00302FB695B0002FA03F3BA691343B0
:101E1000BB617B68BA691A603B685B6803F4403356
:101E2000002B00F0A2800023FB60574B5B6C564AEE
:101E300043F480435364544B5B6C03F48043FB6076
:101E4000FB68524AFB699B08023352F82330BB619E
:101E5000FB6903F003039B000F2202FA03F3DB4349
:101E6000BA691340BB617B68494A934219D07B68C9
:101E7000484A934213D07B68474A93420DD07B680F
:101E8000464A934207D07B68454A934201D10423D6
:101E900008E0072306E0032304E0022302E0012315
:101EA00000E00023FA6902F0030292009340BA694D
:101EB0001343BB613549FB699B080233BA6941F89A
:101EC0002320384B9B68BB613B69DB43BA691340F5
:101ED000BB613B685B6803F48013002B03D0BA69D5
:101EE0003B691343BB612F4ABB6993602D4BDB6891
:101EF000BB613B69DB43BA691340BB613B685B680C
:101F000003F40013002B03D0BA693B691343BB6190
:101F1000244ABB69D360234B5B68BB613B69DB43ED
:101F2000BA691340BB613B685B6803F40033002B64
:101F300003D0BA693B691343BB611A4ABB6953605A
:101F4000184B1B68BB613B69DB43BA691340BB613B
:101F50003B685B6803F48033002B03D0BA693B69AC
:101F60001343BB610F4ABB691360FB690133FB611B
:101F7000FB690F2B7FF6A2AE00BF00BF2437BD4622
:101F80005DF8047B704700BF003802400038014014
:101F9000000002400004024000080240000C024021
:101FA00000100240003C014080B483B000AF786074
:101FB0000B467B8013467B707B78002B03D07A889E
:101FC0007B689A6103E07B881A047B689A6100BF92
:101FD0000C37BD465DF8047B7047000080B584B0C7
:101FE00000AF78607B68002B01D101232BE17B6877
:101FF00093F83D30DBB2002B06D17B68002283F8DA
:102000003C207868FFF786F97B68242283F83D201E
:102010007B681B681A687B681B6822F001021A60E3
:102020007B681B681A687B681B6842F400421A6070
:102030007B681B681A687B681B6822F400421A6080
:1020400001F0E0FBF8607B685B68814A934207D847
:10205000FB68804A934294BF01230023DBB206E071
:10206000FB687D4A934294BF01230023DBB2002B1F
:1020700001D00123E7E0FB68784AA2FB03239B0C15
:10208000BB607B681B685B6823F03F017B681B6853
:10209000BA680A435A607B681B681B6A23F03F01D9
:1020A0007B685B686A4A934202D8BB68013309E0E7
:1020B000BB684FF4967202FB03F3694AA2FB032349
:1020C0009B0901337A6812680B4313627B681B68B3
:1020D000DB6923F44F4222F0FF027B685B685C49B6
:1020E0008B4219D8FB68591E7B685B685B00B1FBAB
:1020F000F3F3591C40F6FC730B40002B0AD0FB682D
:10210000591E7B685B685B00B1FBF3F30133C3F3DB
:102110000B0351E004234FE07B689B68002B11D137
:10212000FB68581E7B6859680B465B000B44B0FB8C
:10213000F3F30133C3F30B03002B0CBF0123002384
:10214000DBB212E0FB68581E7B6859680B469B00A7
:102150000B4499000B44B0FBF3F30133C3F30B03BF
:10216000002B0CBF01230023DBB2002B01D0012385
:1021700022E07B689B68002B0ED1FB68581E7B68B1
:1021800059680B465B000B44B0FBF3F30133C3F318
:102190000B0343F400430FE0FB68581E7B6859684B
:1021A0000B469B000B4499000B44B0FBF3F3013347
:1021B000C3F30B0343F44043796809681343CB61CD
:1021C0007B681B681B6823F0C0017B68DA697B6849
:1021D0001B6A1A437B681B680A431A607B681B688A
:1021E0009B6823F4034323F0FF037A6811697A683C
:1021F000D26811437A6812680B4393607B681B684E
:10220000DB6823F0FF017B685A697B689B691A438E
:102210007B681B680A43DA607B681B681A687B6806
:102220001B6842F001021A607B6800221A647B6816
:10223000202283F83D207B6800221A637B680022FD
:1022400083F83E20002318461037BD4680BD00BFEE
:10225000A08601007F841E00FF083D0083DE1B4333
:10226000D34D621080B588B002AFF8607A601A462C
:102270000B467B8113463B81FFF762FB7861FB686D
:1022800093F83D30DBB2202B40F0E0807B69009377
:10229000192301227049F86800F066FC0346002B00
:1022A00001D00223D3E0FB6893F83C30012B01D12D
:1022B0000223CCE0FB68012283F83C20FB681B680A
:1022C0001B6803F00103012B07D0FB681B681A6829
:1022D000FB681B6842F001021A60FB681B681A6801
:1022E000FB681B6822F400621A60FB68212283F8F5
:1022F0003D20FB68102283F83E20FB6800221A6410
:10230000FB687A685A62FB683A895A85FB685B8D7C
:102310009AB2FB681A85FB68504ADA6279897B6950
:102320003A6AF86800F0D0FA0346002B01D0012386
:102330008DE000233B61FB681B685B693B61FB68C8
:102340001B689B693B613B6966E07A69396AF8689A
:1023500000F0E0FC0346002B0DD0FB681B6C042B47
:1023600007D1FB681B681A68FB681B6842F400729F
:102370001A6001236BE0FB685B6A1A78FB681B68D4
:102380001A61FB685B6A5A1CFB685A62FB685B8DCA
:102390009BB2013B9AB2FB685A85FB681B8D013BDF
:1023A0009AB2FB681A85FB681B685B6903F004033B
:1023B000042B1BD1FB681B8D002B17D0FB685B6ABD
:1023C0001A78FB681B681A61FB685B6A5A1CFB6819
:1023D0005A62FB685B8D9BB2013B9AB2FB685A85DF
:1023E000FB681B8D013B9AB2FB681A857A69396AD2
:1023F000F86800F0D0FC0346002B0DD0FB681B6C86
:10240000042B07D1FB681B681A68FB681B6842F441
:1024100000721A6001231AE0FB681B8D002B94D117
:10242000FB681B681A68FB681B6842F400721A603C
:10243000FB68202283F83D20FB68002283F83E20C1
:10244000FB68002283F83C20002300E002231846AA
:102450001837BD4680BD00BF020010000000FFFF1E
:1024600080B58CB002AFF8607A601A460B467B816B
:1024700013463B81FFF764FA7862FB6893F83D30BE
:10248000DBB2202B40F00B827B6A009319230122E0
:102490007C49F86800F068FB0346002B01D002235A
:1024A000FEE1FB6893F83C30012B01D10223F7E1F8
:1024B000FB68012283F83C20FB681B681B6803F063
:1024C0000103012B07D0FB681B681A68FB681B68B7
:1024D00042F001021A60FB681B681A68FB681B68FF
:1024E00022F400621A60FB68222283F83D20FB6818
:1024F000102283F83E20FB6800221A64FB687A6889
:102500005A62FB683A895A85FB685B8D9AB2FB6810
:102510001A85FB685C4ADA6279897B6A3A6BF868EB
:1025200000F054FA0346002B01D00123B8E1FB6808
:102530001B8D002B13D100233B62FB681B685B697A
:102540003B62FB681B689B693B623B6AFB681B68DC
:102550001A68FB681B6842F400721A608CE1FB6821
:102560001B8D012B1BD1FB681B681A68FB681B685D
:1025700022F480621A600023FB61FB681B685B69C0
:10258000FB61FB681B689B69FB61FB69FB681B685F
:102590001A68FB681B6842F400721A606CE1FB6801
:1025A0001B8D022B1BD1FB681B681A68FB681B681C
:1025B00022F480621A60FB681B681A68FB681B685B
:1025C00042F400621A600023BB61FB681B685B6910
:1025D000BB61FB681B689B69BB61BB694CE1FB6825
:1025E0001B681A68FB681B6842F480621A6000234B
:1025F0007B61FB681B685B697B61FB681B689B698F
:102600007B617B6938E1FB681B8D032B00F2F18055
:10261000FB681B8D012B23D17A6A396BF86800F0B7
:10262000FBFB0346002B01D0012339E1FB681B684B
:102630001A69FB685B6AD2B21A70FB685B6A5A1C43
:10264000FB685A62FB681B8D013B9AB2FB681A85D6
:10265000FB685B8D9BB2013B9AB2FB685A850BE12C
:10266000FB681B8D022B4ED17B6A00933B6B0022D3
:102670000649F86800F078FA0346002B08D00123D9
:102680000EE100BF020010000000FFFF0400010087
:10269000FB681B681A68FB681B6842F400721A60CA
:1026A000FB681B681A69FB685B6AD2B21A70FB6828
:1026B0005B6A5A1CFB685A62FB681B8D013B9AB22D
:1026C000FB681A85FB685B8D9BB2013B9AB2FB6885
:1026D0005A85FB681B681A69FB685B6AD2B21A707C
:1026E000FB685B6A5A1CFB685A62FB681B8D013BE6
:1026F0009AB2FB681A85FB685B8D9BB2013B9AB26C
:10270000FB685A85B8E07B6A00933B6B0022664900
:10271000F86800F029FA0346002B01D00123BFE03E
:10272000FB681B681A68FB681B6822F480621A60E9
:10273000FB681B681A69FB685B6AD2B21A70FB6897
:102740005B6A5A1CFB685A62FB681B8D013B9AB29C
:10275000FB681A85FB685B8D9BB2013B9AB2FB68F4
:102760005A857B6A00933B6B00224F49F86800F062
:10277000FBF90346002B01D0012391E0FB681B68A5
:102780001A68FB681B6842F400721A60FB681B68D9
:102790001A69FB685B6AD2B21A70FB685B6A5A1CE2
:1027A000FB685A62FB681B8D013B9AB2FB681A8575
:1027B000FB685B8D9BB2013B9AB2FB685A85FB6854
:1027C0001B681A69FB685B6AD2B21A70FB685B6AA5
:1027D0005A1CFB685A62FB681B8D013B9AB2FB686E
:1027E0001A85FB685B8D9BB2013B9AB2FB685A85E8
:1027F00042E07A6A396BF86800F00EFB0346002B62
:1028000001D001234CE0FB681B681A69FB685B6A16
:10281000D2B21A70FB685B6A5A1CFB685A62FB688A
:102820001B8D013B9AB2FB681A85FB685B8D9BB2DE
:10283000013B9AB2FB685A85FB681B685B6903F031
:102840000403042B18D1FB681B681A69FB685B6AD8
:10285000D2B21A70FB685B6A5A1CFB685A62FB684A
:102860001B8D013B9AB2FB681A85FB685B8D9BB29E
:10287000013B9AB2FB685A85FB681B8D002B7FF4E5
:10288000C2AEFB68202283F83D20FB68002283F85B
:102890003E20FB68002283F83C20002300E0022356
:1028A00018462837BD4680BD0400010080B483B0BF
:1028B00000AF78607B6893F83D30DBB218460C3788
:1028C000BD465DF8047B704780B588B002AFF86004
:1028D0007A603B600B467B81FB68DB6A7B617B69CE
:1028E000082B06D07B69012B03D07B6913F5803F51
:1028F00008D1FB681B681A68FB681B6842F4807289
:102900001A600BE0FB681B6B122B07D1FB681B687E
:102910001A68FB681B6842F480721A603B68009377
:102920007B6800224FF00111F86800F01DF90346A2
:10293000002B0DD0FB681B681B6803F48073B3F594
:10294000807F03D1FB684FF400721A64032335E0E3
:10295000FB681B69B3F5804F08D17B89DBB21A464F
:10296000FB681B6802F0FE021A611BE07B89DB1129
:10297000DBB203F00603DBB263F00F03DAB2FB68ED
:102980001B681A613B687A680E49F86800F043F9E1
:102990000346002B01D0012310E07B89DAB2FB68EB
:1029A0001B681A613B687A680749F86800F033F9D8
:1029B0000346002B01D0012300E0002318461837FE
:1029C000BD4680BD080001000200010080B588B04E
:1029D00002AFF8607A603B600B467B81FB68DB6A84
:1029E0007B61FB681B681A68FB681B6842F48062A5
:1029F0001A607B69082B06D07B69012B03D07B69A9
:102A000013F5803F08D1FB681B681A68FB681B68D8
:102A100042F480721A600BE0FB681B6B112B07D12C
:102A2000FB681B681A68FB681B6842F480721A60B6
:102A30003B6800937B6800224FF00111F86800F0BA
:102A400093F80346002B0DD0FB681B681B6803F44A
:102A50008073B3F5807F03D1FB684FF400721A6472
:102A6000032379E0FB681B69B3F5804F08D17B89AC
:102A7000DBB243F00103DAB2FB681B681A615FE066
:102A80007B89DB11DBB203F00603DBB263F00F03DB
:102A9000DAB2FB681B681A613B687A683049F868EB
:102AA00000F0B9F80346002B01D0012354E07B89E4
:102AB000DAB2FB681B681A613B687A682949F868D2
:102AC00000F0A9F80346002B01D0012344E00023C5
:102AD0003B61FB681B685B693B61FB681B689B692A
:102AE0003B613B69FB681B681A68FB681B6842F422
:102AF00080721A603B6800937B6800224FF00111DE
:102B0000F86800F031F80346002B0DD0FB681B6815
:102B10001B6803F48073B3F5807F03D1FB684FF427
:102B200000721A64032317E07B89DB11DBB203F028
:102B30000603DBB263F00E03DAB2FB681B681A61AE
:102B40003B687A680749F86800F065F80346002B8F
:102B500001D0012300E0002318461837BD4680BD90
:102B6000080001000200010080B584B000AFF860E9
:102B7000B9603B601346FB7125E03B68B3F1FF3F52
:102B800021D0FEF7DDFE0246BB69D31A3A689A42AD
:102B900002D33B68002B16D1FB6800221A63FB6846
:102BA000202283F83D20FB68002283F83E20FB684A
:102BB0001B6C43F02002FB681A64FB68002283F858
:102BC0003C20012323E0BB681B0CDBB2012B0DD1A1
:102BD000FB681B685B69DA43BB6813409BB2002B40
:102BE0000CBF01230023DBB21A460CE0FB681B6814
:102BF0009B69DA43BB6813409BB2002B0CBF0123D7
:102C00000023DBB21A46FB799A42B6D0002318465D
:102C10001037BD4680BD80B584B000AFF860B960A4
:102C20007A603B6051E0FB681B685B6903F480637A
:102C3000B3F5806F23D1FB681B681A68FB681B68BB
:102C400042F400721A60FB681B686FF480625A617C
:102C5000FB6800221A63FB68202283F83D20FB6892
:102C6000002283F83E20FB681B6C43F00402FB68E3
:102C70001A64FB68002283F83C20012346E07B684D
:102C8000B3F1FF3F21D0FEF75BFE02463B68D31A4B
:102C90007A689A4202D37B68002B16D1FB68002227
:102CA0001A63FB68202283F83D20FB68002283F82A
:102CB0003E20FB681B6C43F02002FB681A64FB6833
:102CC000002283F83C20012320E0BB681B0CDBB210
:102CD000012B0CD1FB681B685B69DA43BB681340AE
:102CE0009BB2002B14BF01230023DBB20BE0FB6877
:102CF0001B689B69DA43BB6813409BB2002B14BF6F
:102D000001230023DBB2002B8DD10023184610379E
:102D1000BD4680BD80B584B000AFF860B9607A6010
:102D20002DE0F86800F0CEF80346002B01D0012317
:102D30002DE0BB68B3F1FF3F21D0FEF701FE024654
:102D40007B68D31ABA689A4202D3BB68002B16D1AB
:102D5000FB6800221A63FB68202283F83D20FB6891
:102D6000002283F83E20FB681B6C43F02002FB68C6
:102D70001A64FB68002283F83C20012307E0FB680B
:102D80001B685B6903F08003802BCAD100231846BF
:102D90001037BD4680BD80B584B000AFF860B96023
:102DA0007A602DE0F86800F08DF80346002B01D022
:102DB00001232DE0BB68B3F1FF3F21D0FEF7C0FD3A
:102DC00002467B68D31ABA689A4202D3BB68002BCA
:102DD00016D1FB6800221A63FB68202283F83D208D
:102DE000FB68002283F83E20FB681B6C43F0200246
:102DF000FB681A64FB68002283F83C20012307E08B
:102E0000FB681B685B6903F00403042BCAD1002331
:102E100018461037BD4680BD80B584B000AFF8605D
:102E2000B9607A6042E0FB681B685B6903F01003DD
:102E3000102B19D1FB681B686FF010025A61FB68F8
:102E400000221A63FB68202283F83D20FB680022E1
:102E500083F83E20FB681A6CFB681A64FB6800224A
:102E600083F83C20012329E0FEF76AFD02467B68D7
:102E7000D31ABA689A4202D3BB68002B16D1FB68FA
:102E800000221A63FB68202283F83D20FB680022A1
:102E900083F83E20FB681B6C43F02002FB681A6439
:102EA000FB68002283F83C20012307E0FB681B68D5
:102EB0005B6903F04003402BB5D10023184610375F
:102EC000BD4680BD80B483B000AF78607B681B686E
:102ED0005B6903F48063B3F5806F1BD17B681B686B
:102EE0006FF480625A617B6800221A637B6820223B
:102EF00083F83D207B68002283F83E207B681B6CB2
:102F000043F004027B681A647B68002283F83C204B
:102F1000012300E0002318460C37BD465DF8047B12
:102F20007047000080B586B000AF78607B68002BEA
:102F300001D1012367E27B681B6803F00103002BCA
:102F400075D0884B9B6803F00C03042B0CD0854B89
:102F50009B6803F00C03082B12D1824B5B6803F4CF
:102F60008003B3F5800F0BD17E4B1B6803F4003355
:102F7000002B5BD07B685B68002B57D1012342E2BA
:102F80007B685B68B3F5803F06D1764B1B68754A5A
:102F900043F4803313601DE07B685B68B3F5A02FBA
:102FA0000CD1704B1B686F4A43F4802313606D4B48
:102FB0001B686C4A43F4803313600BE0694B1B6859
:102FC000684A23F480331360664B1B68654A23F418
:102FD000802313607B685B68002B13D0FEF7B0FC86
:102FE000386108E0FEF7ACFC02463B69D31A642B5B
:102FF00001D9032307E25B4B1B6803F40033002B6A
:10300000F0D014E0FEF79CFC386108E0FEF798FC75
:1030100002463B69D31A642B01D90323F3E1514BD8
:103020001B6803F40033002BF0D100E000BF7B6885
:103030001B6803F00203002B63D04A4B9B6803F02C
:103040000C03002B0BD0474B9B6803F00C03082BA1
:103050001CD1444B5B6803F48003002B16D1414B19
:103060001B6803F00203002B05D07B68DB68012B93
:1030700001D00123C7E13B4B1B6823F0F8027B68BA
:103080001B69DB00374913430B603AE07B68DB6860
:10309000002B20D0344B01221A60FEF751FC38611E
:1030A00008E0FEF74DFC02463B69D31A022B01D91A
:1030B0000323A8E12B4B1B6803F00203002BF0D085
:1030C000284B1B6823F0F8027B681B69DB0025494D
:1030D00013430B6015E0244B00221A60FEF730FC0E
:1030E000386108E0FEF72CFC02463B69D31A022B3C
:1030F00001D9032387E11B4B1B6803F00203002B5C
:10310000F0D17B681B6803F00803002B36D07B6886
:103110005B69002B16D0154B01221A60FEF710FCDC
:10312000386108E0FEF70CFC02463B69D31A022B1B
:1031300001D9032367E10B4B5B6F03F00203002B04
:10314000F0D01BE0094B00221A60FEF7F9FB386152
:103150000EE0FEF7F5FB02463B69D31A022B07D9B6
:10316000032350E10038024000004742800E4742EE
:10317000884B5B6F03F00203002BEAD17B681B686E
:1031800003F00403002B00F097800023FB75814BB4
:103190001B6C03F08053002B0FD10023BB607D4BD1
:1031A0001B6C7C4A43F0805313647A4B1B6C03F016
:1031B0008053BB60BB680123FB75774B1B6803F42E
:1031C0008073002B18D1744B1B68734A43F48073CF
:1031D0001360FEF7B5FB386108E0FEF7B1FB02466D
:1031E0003B69D31A022B01D903230CE16A4B1B68FC
:1031F00003F48073002BF0D07B689B68012B06D111
:10320000644B1B6F634A43F0010313671CE07B6848
:103210009B68052B0CD15F4B1B6F5E4A43F0040388
:1032200013675C4B1B6F5B4A43F0010313670BE0B2
:10323000584B1B6F574A23F001031367554B1B6F05
:10324000544A23F0040313677B689B68002B15D056
:10325000FEF776FB38610AE0FEF772FB02463B6937
:10326000D31A41F28832934201D90323CBE0494B70
:103270001B6F03F00203002BEED014E0FEF760FB9F
:1032800038610AE0FEF75CFB02463B69D31A41F263
:103290008832934201D90323B5E03E4B1B6F03F004
:1032A0000203002BEED1FB7D012B05D1394B1B6CAA
:1032B000384A23F0805313647B689B69002B00F02D
:1032C000A180344B9B6803F00C03082B5CD07B6817
:1032D0009B69022B41D1314B00221A60FEF730FB73
:1032E000386108E0FEF72CFB02463B69D31A022B3B
:1032F00001D9032387E0274B1B6803F00073002BE1
:10330000F0D17B68DA697B681B6A1A437B685B6A69
:103310009B011A437B689B6A5B08013B1B041A43B1
:103320007B68DB6A1B061B4913434B601B4B012266
:103330001A60FEF705FB386108E0FEF701FB024664
:103340003B69D31A022B01D903235CE0114B1B68A4
:1033500003F00073002BF0D054E0104B00221A60F1
:10336000FEF7EEFA386108E0FEF7EAFA02463B693A
:10337000D31A022B01D9032345E0064B1B6803F047
:103380000073002BF0D13DE07B689B69012B07D1D6
:10339000012338E0003802400070004060004742DE
:1033A0001B4B5B68FB607B689B69012B28D0FB682B
:1033B00003F480027B68DB699A4221D1FB6803F049
:1033C0003F027B681B6A9A421AD1FA6847F6C073BB
:1033D00013407A68526A9201934211D1FB6803F458
:1033E00040327B689B6A5B08013B1B049A4207D111
:1033F000FB6803F070627B68DB6A1B069A4201D0AF
:10340000012300E0002318461837BD4680BD00BFE9
:103410000038024080B584B000AF786039607B68C6
:10342000002B01D10123CCE0684B1B6803F007039C
:103430003A689A420CD9654B3A68D2B21A70634B1B
:103440001B6803F007033A689A4201D00123B8E0F1
:103450007B681B6803F00203002B20D07B681B688D
:1034600003F00403002B05D0594B9B68584A43F4E2
:10347000E05393607B681B6803F00803002B05D0C2
:10348000534B9B68524A43F460439360504B9B6894
:1034900023F0F0027B689B684D4913438B607B6887
:1034A0001B6803F00103002B44D07B685B68012B91
:1034B00007D1474B1B6803F40033002B19D10123BC
:1034C0007FE07B685B68022B03D07B685B68032B23
:1034D00007D13F4B1B6803F00073002B09D1012378
:1034E0006FE03B4B1B6803F00203002B01D101236B
:1034F00067E0374B9B6823F003027B685B683449C5
:1035000013438B60FEF71CFAF8600AE0FEF718FA26
:103510000246FB68D31A41F28832934201D9032351
:103520004FE02B4B9B6803F00C027B685B689B00B1
:103530009A42EBD1254B1B6803F007033A689A4285
:103540000CD2224B3A68D2B21A70204B1B6803F09F
:1035500007033A689A4201D0012332E07B681B6876
:1035600003F00403002B08D0194B9B6823F4E052AE
:103570007B68DB68164913438B607B681B6803F02C
:103580000803002B09D0124B9B6823F460427B6830
:103590001B69DB000E4913438B6000F021F80246E3
:1035A0000B4B9B681B0903F00F030A49CB5C22FA03
:1035B00003F3094A1360094B1B681846FEF77CF9B0
:1035C000002318461037BD4680BD00BF003C0240B6
:1035D0000038024024A7000800000020040000205A
:1035E0002DE9B04F94B000AF00237B640023FB644F
:1035F00000233B640023BB64794B9B6803F00C03FE
:10360000082B0DD0082B00F2E180002B02D0042BF8
:1036100003D0DBE0734BBB64DBE0734BBB64D8E0EF
:103620006F4B5B6803F03F037B646D4B5B6803F497
:103630008003002B63D06A4B5B689B090022BB634D
:10364000FA63BB6BC3F308033B6300237B63D7E9D7
:103650000C4522462B464FF000004FF00001590167
:1036600041EAD261500102460B462146511A3961A6
:10367000294663EB01037B614FF000024FF000032A
:10368000D7E904AB59468B01514643EA9163514651
:103690008A015146B2EB0108594663EB01094FF02C
:1036A00000024FF000034FEAC90343EA58734FEAA0
:1036B000C80290469946234618EB0303BB602B468D
:1036C00049EB0303FB604FF000024FF00003D7E922
:1036D000024529464B02214643EAD15321464A027C
:1036E000104619467B6C0022BB62FA62D7E90A23B6
:1036F000FDF7D2FA02460B461346FB6458E0384BFE
:103700005B689B09002218461146C0F308033B6220
:1037100000237B62D7E9088942464B464FF0000000
:103720004FF00001590141EAD261500102460B46B7
:103730004146B2EB010A494663EB010B4FF0000230
:103740004FF000034FEA8B1343EA9A634FEA8A1261
:10375000B2EB0A0463EB0B054FF000024FF00003DD
:10376000EB0043EA5473E20014461D464346E31857
:103770003B604B4645EB03037B604FF000024FF08C
:103780000003D7E9004529468B02214643EA9153BD
:1037900021468A02104619467B6C0022BB61FA6101
:1037A000D7E90623FDF778FA02460B461346FB6479
:1037B0000B4B5B681B0C03F0030301335B003B64A2
:1037C000FA6C3B6CB2FBF3F3BB6402E0054BBB64E9
:1037D00000BFBB6C18465037BD46BDE8B08F00BF78
:1037E000003802400024F40000127A0080B400AFD8
:1037F000034B1B681846BD465DF8047B704700BF4D
:103800000000002080B500AFFFF7F0FF0246054B37
:103810009B689B0A03F007030349CB5C22FA03F37E
:10382000184680BD0038024034A7000880B500AFBC
:10383000FFF7DCFF0246054B9B685B0B03F00703B9
:103840000349CB5C22FA03F3184680BD00380240DE
:1038500034A7000880B582B000AF78607B68002B89
:1038600001D101233FE07B6893F83D30DBB2002BB0
:1038700006D17B68002283F83C207868FDF780FF42
:103880007B68242283F83D207B681B68DA687B68AC
:103890001B6822F40052DA60786800F07BFD7B68D8
:1038A0001B681A697B681B6822F490421A617B6866
:1038B0001B685A697B681B6822F02A025A617B6880
:1038C0001B68DA687B681B6842F40052DA607B6828
:1038D00000221A647B68202283F83D207B68202226
:1038E00083F83E20002318460837BD4680BD80B5CA
:1038F0008AB002AFF860B9603B601346FB800023DA
:103900007B61FB6893F83D30DBB2202B7CD1BB6838
:10391000002B02D0FB88002B01D1012375E0FB684E
:1039200093F83C30012B01D102236EE0FB680122A9
:1039300083F83C20FB6800221A64FB68212283F88C
:103940003D20FDF7FDFF7861FB68FA889A84FB68EB
:10395000FA88DA84FB689B68B3F5805F08D1FB685E
:103960001B69002B04D10023FB61BB68BB6103E032
:10397000BB68FB610023BB61FB68002283F83C202D
:103980002AE03B6800937B6900228021F86800F000
:10399000F9FA0346002B01D0032336E0FB69002B24
:1039A0000BD1BB691B881A46FB681B68C2F308026F
:1039B0005A60BB690233BB6107E0FB691A78FB6898
:1039C0001B685A60FB690133FB61FB68DB8C9BB2AF
:1039D000013B9AB2FB68DA84FB68DB8C9BB2002B5C
:1039E000CFD13B6800937B6900224021F86800F04A
:1039F000C9FA0346002B01D0032306E0FB6820220E
:103A000083F83D20002300E0022318462037BD46FE
:103A100080BD000080B5BAB000AF78607B681B68DD
:103A20001B68C7F8E4307B681B68DB68C7F8E030C8
:103A30007B681B685B69C7F8DC300023C7F8D830A7
:103A40000023C7F8D430D7F8E43003F00F03C7F8E9
:103A5000D830D7F8D830002B0FD1D7F8E43003F0A6
:103A60002003002B09D0D7F8E03003F02003002B0F
:103A700003D0786800F0D3FB56E2D7F8D830002B9B
:103A800000F0DE80D7F8DC3003F00103002B06D114
:103A9000D7F8E03003F49073002B00F0D180D7F812
:103AA000E43003F00103002B0BD0D7F8E03003F42F
:103AB0008073002B05D07B681B6C43F001027B6890
:103AC0001A64D7F8E43003F00403002B0BD0D7F8C6
:103AD000DC3003F00103002B05D07B681B6C43F046
:103AE00002027B681A64D7F8E43003F00203002B6B
:103AF0000BD0D7F8DC3003F00103002B05D07B6836
:103B00001B6C43F004027B681A64D7F8E43003F0BE
:103B10000803002B11D0D7F8E03003F02003002B6E
:103B200005D1D7F8DC3003F00103002B05D07B680A
:103B30001B6C43F008027B681A647B681B6C002BCB
:103B400000F0ED81D7F8E43003F02003002B08D01B
:103B5000D7F8E03003F02003002B02D0786800F0A3
:103B60005EFB7B681B685B6903F04003402B0CBF66
:103B700001230023DBB2C7F8D4307B681B6C03F051
:103B80000803002B03D1D7F8D430002B4FD078682E
:103B900000F066FA7B681B685B6903F04003402B0A
:103BA00041D17B681B681433C7F89C30D7F89C3030
:103BB00053E8003FC7F89830D7F8983023F0400317
:103BC000C7F8D0307B681B681433D7F8D020C7F80B
:103BD000A820C7F8A430D7F8A410D7F8A82041E847
:103BE0000023C7F8A030D7F8A030002BD9D17B68CC
:103BF0009B6B002B13D07B689B6B7D4A1A657B689F
:103C00009B6B1846FEF729F80346002B16D07B68FD
:103C10009B6B1B6D7A68926B104698470EE0786834
:103C200000F09AF90AE0786800F096F906E0786802
:103C300000F092F97B6800221A6470E100BF6EE127
:103C40007B681B6B012B40F04A81D7F8E43003F00E
:103C50001003002B00F04381D7F8E03003F010038D
:103C6000002B00F03C810023BB607B681B681B6855
:103C7000BB607B681B685B68BB60BB687B681B685C
:103C80005B6903F04003402B40F0B4807B689B6B82
:103C90001B685B68A7F8BE30B7F8BE30002B00F099
:103CA00040817B689B8DB7F8BE209A4280F03981B5
:103CB0007B68B7F8BE20DA857B689B6BDB69B3F560
:103CC000807F00F088807B681B680C33C7F88830E1
:103CD000D7F8883053E8003FC7F88430D7F88430ED
:103CE00023F48073C7F8B8307B681B680C33D7F8AF
:103CF000B820C7F89420C7F89030D7F89010D7F8BC
:103D0000942041E80023C7F88C30D7F88C30002B82
:103D1000D9D17B681B6814337B677B6F53E8003F06
:103D20003B673B6F23F00103C7F8B4307B681B6827
:103D30001433D7F8B420C7F88020FB67F96FD7F8A1
:103D4000802041E80023BB67BB6F002BE1D17B687B
:103D50001B6814333B663B6E53E8003FFB65FB6D0D
:103D600023F04003C7F8B0307B681B681433D7F8E2
:103D7000B020FA66BB66B96EFA6E41E800237B6636
:103D80007B6E002BE3D17B68202283F83E207B688A
:103D900000221A637B681B680C33FB64FB6C53E8DE
:103DA000003FBB64BB6C23F01003C7F8AC307B68EA
:103DB0001B680C33D7F8AC20BA657B65796DBA6D9A
:103DC00041E800233B653B6D002BE3D17B689B6B97
:103DD0001846FDF7D2FE7B689A8D7B68DB8D9BB21F
:103DE000D31A9BB21946786800F0C0F899E000BF7A
:103DF000274100087B689A8D7B68DB8D9BB2D31AC4
:103E0000A7F8CE307B68DB8D9BB2002B00F08B8057
:103E1000B7F8CE30002B00F086807B681B680C332F
:103E2000BB63BB6B53E8003F7B637B6B23F49073F6
:103E3000C7F8C8307B681B680C33D7F8C8207A6491
:103E40003B64396C7A6C41E80023FB63FB6B002B0D
:103E5000E3D17B681B6814337B627B6A53E8003FC5
:103E60003B623B6A23F00103C7F8C4307B681B68E0
:103E70001433D7F8C4203A63FB62F96A3A6B41E81D
:103E80000023BB62BB6A002BE3D17B68202283F84E
:103E90003E207B6800221A637B681B680C333B6101
:103EA0003B6953E8003FFB60FB6823F01003C7F851
:103EB000C0307B681B680C33D7F8C020FA61BB6147
:103EC000B969FA6941E800237B617B69002BE3D182
:103ED000B7F8CE301946786800F048F823E0D7F8F4
:103EE000E43003F08003002B09D0D7F8E03003F072
:103EF0008003002B03D0786800F029F914E0D7F88C
:103F0000E43003F04003002B0ED0D7F8E03003F08C
:103F10004003002B08D0786800F069F904E000BF86
:103F200002E000BF00E000BFE837BD4680BD00BF33
:103F300080B483B000AF786000BF0C37BD465DF839
:103F4000047B704780B483B000AF786000BF0C374B
:103F5000BD465DF8047B704780B483B000AF7860E5
:103F600000BF0C37BD465DF8047B704780B483B05A
:103F700000AF78600B467B8000BF0C37BD465DF814
:103F8000047B704780B590B000AFF860B9603B60CB
:103F90001346FB7150E0BB6CB3F1FF3F4CD0BB6CE0
:103FA000002B07D0FDF7CCFC02463B68D31ABA6C55
:103FB0009A4241D2FB681B680C33BB62BB6A53E870
:103FC000003F7B627B6A23F4D073FB63FB681B6852
:103FD0000C33FA6B7A633B63396B7A6B41E80023ED
:103FE000FB62FB6A002BE5D1FB681B6814337B6125
:103FF0007B6953E8003F3B613B6923F00103BB63EE
:10400000FB681B681433BA6B3A62FB61F9693A6A60
:1040100041E80023BB61BB69002BE5D1FB6820228E
:1040200083F83D20FB68202283F83E20FB680022B5
:1040300083F83C2003230FE0FB681B681A68BB6809
:104040001340BA689A420CBF01230023DBB21A4620
:10405000FB799A429FD0002318464037BD4680BD69
:1040600080B495B000AF78607B681B680C337B63CD
:104070007B6B53E8003F3B633B6B23F49073FB6423
:104080007B681B680C33FA6C3A64FB63F96B3A6C1F
:1040900041E80023BB63BB6B002BE5D17B681B6849
:1040A00014333B623B6A53E8003FFB61FB6923F03A
:1040B0000103BB647B681B681433BA6CFA62BB6291
:1040C000B96AFA6A41E800237B627B6A002BE5D17A
:1040D0007B681B6B012B19D17B681B680C33FB6061
:1040E000FB6853E8003FBB60BB6823F010037B64B0
:1040F0007B681B680C337A6CBA617B617969BA6939
:1041000041E800233B613B69002BE5D17B6820221D
:1041100083F83E207B6800221A6300BF5437BD46F7
:104120005DF8047B704780B584B000AF78607B6831
:104130009B6BFB60FB680022DA85FB680022DA8457
:10414000F868FFF709FF00BF1037BD4680BD80B497
:1041500085B000AF78607B6893F83D30DBB2212BEF
:104160003ED17B689B68B3F5805F14D17B681B6987
:10417000002B10D17B681B6AFB60FB681B881A460A
:104180007B681B68C2F308025A607B681B6A9A1C32
:104190007B681A6208E07B681B6A591C7A681162A6
:1041A0001A787B681B685A607B68DB8C9BB2013B8A
:1041B0009BB27A681946D184002B0FD17B681B68AB
:1041C000DA687B681B6822F08002DA607B681B6813
:1041D000DA687B681B6842F04002DA60002300E086
:1041E000022318461437BD465DF8047B704780B53E
:1041F00082B000AF78607B681B68DA687B681B68F8
:1042000022F04002DA607B68202283F83D20786843
:10421000FFF78EFE002318460837BD4680BD80B5E7
:104220008CB000AF78607B6893F83E30DBB2222B15
:1042300040F0AB807B689B68B3F5805F17D17B68EB
:104240001B69002B13D10023FB627B689B6ABB6256
:104250007B681B685B689BB2C3F308039AB2BB6AB6
:104260001A807B689B6A9A1C7B689A6226E07B684E
:104270009B6AFB620023BB627B689B68B3F5805F2F
:1042800007D07B689B68002B0AD17B681B69002BD9
:1042900006D17B681B685B68DAB2FB6A1A7008E0BB
:1042A0007B681B685B68DBB203F07F03DAB2FB6AF2
:1042B0001A707B689B6A5A1C7B689A627B68DB8DEC
:1042C0009BB2013B9BB27A681946D185002B5AD12B
:1042D0007B681B68DA687B681B6822F02002DA6062
:1042E0007B681B68DA687B681B6822F48072DA607E
:1042F0007B681B685A697B681B6822F001025A615F
:104300007B68202283F83E207B681B6B012B35D114
:104310007B6800221A637B681B680C337B617B69B6
:1043200053E8003F3B613B6923F010037B627B68ED
:104330001B680C337A6A3A62FB61F9693A6A41E8B0
:104340000023BB61BB69002BE5D17B681B681B6840
:1043500003F01003102B0AD10023FB607B681B685D
:104360001B68FB607B681B685B68FB60FB687B68A5
:104370009B8D19467868FFF7F9FD02E07868FFF732
:10438000E1FD002302E0002300E00223184630375D
:10439000BD4680BD2DE9B04FC0B000AFC7F8F400F6
:1043A000D7F8F4301B681B6923F44050D7F8F43079
:1043B000D968D7F8F4301A6840EA01031361D7F8D6
:1043C000F4309A68D7F8F4301B691A43D7F8F43000
:1043D0005B691A43D7F8F430DB691343C7F8F83048
:1043E000D7F8F4301B68DB6823F4164121F00C0188
:1043F000D7F8F4301A68D7F8F8300B43D360D7F801
:10440000F4301B685B6923F44070D7F8F430996985
:10441000D7F8F4301A6840EA01035361D7F8F43052
:104420001A688F4B9A4205D0D7F8F4301A688D4B32
:104430009A4204D1FFF7FAF9C7F8FC0003E0FFF74E
:10444000E1F9C7F8FC00D7F8F430DB69B3F5004FA9
:1044500040F00C81D7F8FC300022C7F8E830C7F8EC
:10446000EC20D7E93A4522462B469118B9655B41C5
:10447000FB65D7E91623214612EB0108294643EBD9
:1044800001094FF000024FF000034FEAC90343EA6D
:1044900058734FEAC80290469946234618EB030327
:1044A000C7F8E0302B4649EB0303C7F8E430D7F8F0
:1044B000F4305B680022C7F8D830C7F8DC20D7E9B1
:1044C00036120B46DB183B65134642EB03037B6554
:1044D000D7E91423D7E93801FCF7DEFB02460B4687
:1044E000614BA3FB02235B091C01D7F8FC300022BF
:1044F000C7F8D030C7F8D420D7E9348942464B46B4
:104500009118B9645B41FB64D7E91223414612EB71
:10451000010A494643EB010B4FF000024FF0000344
:104520004FEACB0343EA5A734FEACA0292469B46CC
:1045300043461AEB0303C7F8C8304B464BEB030363
:10454000C7F8CC30D7F8F4305B680022C7F8C03029
:10455000C7F8C420D7E930120B46DB183B6413467A
:1045600042EB03037B64D7E91023D7E93201FCF760
:1045700093FB02460B4611463B4BA3FB01235B0911
:10458000642202FB03F3CB1ADB0003F13202364B49
:10459000A3FB02235B095B0003F4F8731C44D7F808
:1045A000FC300022C7F8B830C7F8BC20D7E92E8904
:1045B00042464B469118B9635B41FB63D7E90E2332
:1045C00041465118396349464B417B634FF0000225
:1045D0004FF00003D7E90CAB5946CB00514643EAF4
:1045E00051735146CA0010461946034642469B186D
:1045F000C7F8B0304B460A4642EB0303C7F8B43065
:10460000D7F8F4305B680022C7F8A830C7F8AC20B0
:10461000D7E92A120B46DB18BB62134642EB0303B1
:10462000FB62D7E90A23D7E92C01FCF735FB0246E8
:104630000B460D4BA3FB02135B09642101FB03F343
:10464000D31ADB003233084AA2FB03235B0903F0D1
:104650000702D7F8F4301B6822449A6005E100BFD6
:1046600000100140001401401F85EB51D7F8FC30C9
:104670000022C7F8A030C7F8A420D7E9288942460D
:104680004B46911839625B417B62D7E9082341466A
:104690005418494643EB01054FF000024FF0000368
:1046A000EB0043EA5473E20014461D464346E31808
:1046B000C7F898304B4645EB0303C7F89C30D7F852
:1046C000F4305B680022C7F89030C7F894204FF0B0
:1046D00000024FF00003D7E9244529468B0021460C
:1046E00043EA917321468A00D7E92601FCF7D4FA00
:1046F00002460B46604BA3FB02235B091C01D7F863
:10470000FC300022C7F88830C7F88C20D7E922890E
:1047100042464B469118B9615B41FB61D7E90623DC
:1047200041465118396149464B417B614FF00002C7
:104730004FF00003D7E904AB5946CB00514643EA9A
:1047400051735146CA0010461946034642469B180B
:10475000C7F880304B460A4642EB0303C7F8843063
:10476000D7F8F4305B680022BB67FA674FF00002AD
:104770004FF00003D7E91E8949468B00414643EAC2
:10478000917341468A00D7E92001FCF785FA024679
:104790000B46394BA3FB02135B09642101FB03F3B6
:1047A000D31A1B013233344AA2FB03235B0903F003
:1047B000F0031C44D7F8FC3000223B677A67D7E946
:1047C0001C8942464B469118B9605B41FB60D7E9B2
:1047D000022341465118396049464B417B604FF0F6
:1047E00000024FF00003D7E900AB5946CB00514619
:1047F00043EA51735146CA001046194603464246E1
:104800009B18BB664B460A4642EB0303FB66D7F890
:10481000F4305B6800223B667A664FF000024FF08E
:104820000003D7E9188949468B00414643EA917352
:1048300041468A00D7E91A01FCF72EFA02460B46D8
:104840000D4BA3FB02135B09642101FB03F3D31A95
:104850001B013233084AA2FB03235B0903F00F025A
:10486000D7F8F4301B6822449A6000BF07F58077C0
:10487000BD46BDE8B08F00BF1F85EB5180B485B049
:1048800000AF0346FB800023FB60B7F90630842BA2
:1048900005D0B7F90620FB6813440333FB60FB68BF
:1048A00018461437BD465DF8047B704780B500AFED
:1048B00000F0DEFA0023184680BDF0B589B004AFE1
:1048C000786039607B685B69002B20D07B689B69CE
:1048D000002B1CD07B685C687B681D687B681E6948
:1048E0007B68B3F908301846FFF7C8FF01467B68BC
:1048F0005B697A6892690292019300913B68324643
:104900002946204600F0EDF80346FB601CE07B687A
:104910005C687B681D687B681B699EB27B68B3F925
:1049200008301846FFF7AAFF024607F10C0301936F
:1049300000923B6832462946204600F02FF9034694
:10494000012B01D0002300E0FB6818461437BD4658
:10495000F0BD80B584B000AF78607B68FB60FB6819
:10496000002B01D0FB6800E00123184600F04CFA50
:10497000002318461037BD4680BD80B483B000AF19
:1049800078607B6803F108027B685A607B684FF0AF
:10499000FF329A607B6803F108027B68DA607B680B
:1049A00003F108027B681A617B6800221A6000BF6D
:1049B0000C37BD465DF8047B704780B483B000AF10
:1049C00078607B6800221A6100BF0C37BD465DF835
:1049D000047B704780B485B000AF786039607B6835
:1049E0005B68FB603B68FA685A60FB689A683B68E2
:1049F0009A60FB689B683A685A60FB683A689A60FC
:104A00003B687A681A617B681B685A1C7B681A606D
:104A100000BF1437BD465DF8047B704780B485B095
:104A200000AF786039603B681B68BB60BB68B3F15E
:104A3000FF3F03D17B681B69FB600CE07B68083398
:104A4000FB6002E0FB685B68FB60FB685B681B68FF
:104A5000BA689A42F6D2FB685A683B685A603B686B
:104A60005B683A689A603B68FA689A60FB683A68E3
:104A70005A603B687A681A617B681B685A1C7B68BD
:104A80001A6000BF1437BD465DF8047B704780B4E0
:104A900085B000AF78607B681B69FB607B685B68F2
:104AA0007A6892689A607B689B687A6852685A60F4
:104AB000FB685B687A689A4203D17B689A68FB68F6
:104AC0005A607B6800221A61FB681B685A1EFB68EB
:104AD0001A60FB681B6818461437BD465DF8047BF6
:104AE000704780B58EB004AFF860B9607A603B6003
:104AF0007B6B002B0AD14FF0500383F31188BFF377
:104B00006F8FBFF34F8F3B6200BFFEE7BB6B002B85
:104B10000AD14FF0500383F31188BFF36F8FBFF3B7
:104B20004F8FFB6100BFFEE754233B613B69542B71
:104B30000AD04FF0500383F31188BFF36F8FBFF398
:104B40004F8FBB6100BFFEE73B69BB6B002B1ED0E4
:104B50007B6B002B1BD0BB6B7B627B6A7A6B1A630F
:104B60007B6A022283F85120002303937B6A02931D
:104B700007F1140301933B6B00933B687A68B968B3
:104B8000F86800F050F8786A00F0D4F801E00023EB
:104B90007B617B6918462837BD4680BD80B58CB0E7
:104BA00004AFF860B9603B601346FB80FB889B0054
:104BB000184600F0E1FE78617B69002B0ED054208E
:104BC00000F0DAFEF861FB69002B03D0FB697A691B
:104BD0001A6305E0786900F09BFF01E00023FB61A8
:104BE000FB69002B17D0FB69002283F85120FA885B
:104BF00000230393FB690293FB6A0193BB6A009352
:104C00003B68B968F86800F00EF8F86900F092F8AF
:104C10000123BB6102E04FF0FF33BB61BB69184663
:104C20002037BD4680BD80B588B000AFF860B96060
:104C30007A603B603B6B1A6B7B6803F18043013BFE
:104C40009B001344BB61BB6923F00703BB61BB69D5
:104C500003F00703002B0AD04FF0500383F31188B1
:104C6000BFF36F8FBFF34F8F7B6100BFFEE7BB6861
:104C7000002B1FD00023FB6112E0BA68FB691344CC
:104C800019783A6BFB69134434330A461A70BA68D0
:104C9000FB6913441B78002B06D0FB690133FB61D1
:104CA000FB690F2BE9D900E000BF3B6B002283F8C2
:104CB000432003E03B6B002283F83420BB6A062BC1
:104CC00001D90623BB623B6BBA6ADA623B6BBA6AF4
:104CD0005A643B6B00229A643B6B04331846FFF71F
:104CE0006CFE3B6B18331846FFF767FE3B6B3A6B65
:104CF0001A61BB6AC3F107023B6B9A613B6B3A6B6B
:104D00005A623B6B0022DA643B6B002283F850202E
:104D10003A68F968B86900F023FC02463B6B1A60F8
:104D2000FB6A002B02D0FB6A3A6B1A6000BF203787
:104D3000BD4680BD80B582B000AF786000F03AFD1E
:104D40002A4B1B680133294A1360294B1B68002B2F
:104D500009D1274A7B681360244B1B68012B10D1B3
:104D600000F0BCFA0DE0234B1B68002B09D1204B4F
:104D70001B68DA6A7B68DB6A9A4202D81C4A7B6845
:104D800013601D4B1B6801331B4A13607B68DB6A91
:104D900001229A40194B1B681343184A13607B6821
:104DA000DA6A13469B0013449B00154A1A447B6839
:104DB000043319461046FFF70DFE00F02BFD0D4B96
:104DC0001B68002B0ED00A4B1B68DA6A7B68DB6A13
:104DD0009A4207D20B4B4FF080521A60BFF34F8FAD
:104DE000BFF36F8F00BF0837BD4680BDF8050020B8
:104DF000F80400200406002014060020000600200D
:104E0000FC04002004ED00E080B584B000AF7860C1
:104E10000023FB607B68002B17D0134B1B68002B13
:104E20000AD04FF0500383F31188BFF36F8FBFF3A5
:104E30004F8FBB6000BFFEE700F07AF80021786872
:104E400000F028FB00F082F8F860FB68002B07D127
:104E5000064B4FF080521A60BFF34F8FBFF36F8F36
:104E600000BF1037BD4680BD2006002004ED00E0E5
:104E700080B58AB004AF0023BB6000237B603A4654
:104E8000391D07F108031846FCF73EF939687B68BD
:104E9000BA68029201930023009300230A461E4938
:104EA0001E48FFF71EFE03461D4A13601C4B1B687D
:104EB000002B02D001237B6101E000237B617B6931
:104EC000012B16D14FF0500383F31188BFF36F8F7E
:104ED000BFF34F8F3B6100BF124B4FF0FF321A60A0
:104EE000114B01221A60114B00221A6000F0C0FB26
:104EF0000EE07B69B3F1FF3F0AD14FF0500383F31B
:104F00001188BFF36F8FBFF34F8FFB6000BFFEE7C9
:104F100000BF1837BD4680BD1CA70008AD52000871
:104F20001C0600201806002004060020FC050020B6
:104F300080B400AF044B1B680133034A136000BF09
:104F4000BD465DF8047B70472006002080B584B024
:104F500000AF0023FB600023BB60414B1B68002BAC
:104F60000AD14FF0500383F31188BFF36F8FBFF363
:104F70004F8F3B6000BFFEE700F01CFC384B1B6806
:104F8000013B374A1360364B1B68002B61D1354B10
:104F90001B68002B5DD02EE0334BDB68DB68FB60C9
:104FA000FB6818331846FFF772FDFB680433184698
:104FB000FFF76DFDFB68DB6A01229A402B4B1B68F3
:104FC00013432A4A1360FB68DA6A13469B001344B2
:104FD0009B00274A1A44FB68043319461046FFF722
:104FE000F9FCFB68DA6A234B1B68DB6A9A4202D33E
:104FF000214B01221A601C4B1B68002BCCD1FB6893
:10500000002B01D000F008FA1C4B1B687B607B680A
:10501000002B10D000F036F80346002B02D0164BC0
:1050200001221A607B68013B7B607B68002BF1D119
:10503000124B00221A60104B1B68002B09D0012371
:10504000BB600F4B4FF080521A60BFF34F8FBFF31E
:105050006F8F00F0DFFBBB6818461037BD4680BD80
:1050600020060020F8050020B805002000060020DA
:10507000FC040020F80400200C0600200806002094
:1050800004ED00E080B586B000AF00237B614E4B9D
:105090001B68002B40F08E804C4B1B6801333B613A
:1050A0004A4A3B6913603B69002B20D1484B1B687F
:1050B0001B68002B0AD04FF0500383F31188BFF315
:1050C0006F8FBFF34F8F3B6000BFFEE7404B1B6805
:1050D000FB60404B1B683E4A13603E4AFB6813600E
:1050E0003D4B1B6801333C4A136000F095F93B4B84
:1050F0001B683A699A4248D3354B1B681B68002BE2
:1051000004D1364B4FF0FF321A603EE0304B1B6843
:10511000DB68DB68BB60BB685B687B603A697B68A7
:105120009A4203D22D4A7B6813602EE0BB68043399
:105130001846FFF7ACFCBB689B6A002B04D0BB6829
:1051400018331846FFF7A3FCBB68DB6A01229A40BC
:10515000234B1B681343224A1360BB68DA6A134669
:105160009B0013449B001F4A1A44BB680433194632
:105170001046FFF72FFCBB68DA6A1B4B1B68DB6A23
:105180009A42B9D301237B61B6E7174B1B68DA6AF1
:10519000144913469B0013449B000B441B68012BCE
:1051A00001D901237B61114B1B68002B07D0012320
:1051B0007B6104E00E4B1B6801330D4A13607B6971
:1051C00018461837BD4680BD20060020FC0500208B
:1051D000B0050020B40500201006002018060020AD
:1051E00000060020FC040020F80400200C0600202B
:1051F0000806002080B487B000AF274B1B68002B47
:1052000003D0264B01221A603FE0244B00221A6093
:10521000234B1B68FB60FB68B3FA83F3FB72FB7ADA
:10522000C3F11F037B611F497A6913469B00134436
:105230009B000B441B68002B0AD14FF0500383F3F3
:105240001188BFF36F8FBFF34F8F7B6000BFFEE706
:105250007A6913469B0013449B00124A13443B6136
:105260003B695B685A683B695A603B695A683B69AD
:1052700008339A4204D13B695B685A683B695A60BB
:105280003B695B68DB68084A136000BF1C37BD469A
:105290005DF8047B704700BF200600200C0600204C
:1052A00000060020FC040020F804002080B582B035
:1052B00000AF786000F052F8064B1B68012BF9D95B
:1052C000054B4FF080521A60BFF34F8FBFF36F8FC3
:1052D000F0E700BFFC04002004ED00E080B582B0E0
:1052E00000AF00237B600CE07A6813469B001344F8
:1052F0009B00124A13441846FFF73FFB7B680133BB
:105300007B607B68062BEFD90D48FFF736FB0D4815
:10531000FFF733FB0C48FFF730FB0C48FFF72DFB82
:105320000B48FFF72AFB0B4B054A1A600A4B054A4C
:105330001A6000BF0837BD4680BD00BFFC040020D6
:10534000880500209C050020B8050020CC05002021
:10535000E4050020B0050020B405002080B582B02F
:1053600000AF19E000F026FA104BDB68DB687B60C9
:105370007B6804331846FFF78AFB0D4B1B68013B23
:105380000B4A13600B4B1B68013B0A4A136000F089
:1053900041FA786800F010F8064B1B68002BE1D149
:1053A00000BF00BF0837BD4680BD00BFCC05002050
:1053B000F8050020E005002080B584B000AF7860DB
:1053C0007B6893F85130002B08D17B681B6B184623
:1053D00000F09EFB786800F09BFB18E07B6893F878
:1053E0005130012B03D1786800F092FB0FE07B680D
:1053F00093F85130022B0AD04FF0500383F31188F9
:10540000BFF36F8FBFF34F8FFB6000BFFEE700BF9E
:105410001037BD4680BD000080B483B000AF0C4B98
:105420001B681B68002B04D10A4B4FF0FF321A6037
:1054300008E0074B1B68DB68DB687B607B685B68A8
:10544000044A136000BF0C37BD465DF8047B70470B
:10545000B00500201806002080B483B000AF0B4BCD
:105460001B68002B02D101237B6008E0084B1B68FE
:10547000002B02D102237B6001E000237B607B686C
:1054800018460C37BD465DF8047B704704060020C3
:105490002006002080B584B000AF78603960294BC9
:1054A0001B68FB60284B1B6804331846FFF7EFFAB4
:1054B0000346002B0BD1244B1B68DB6A012202FA46
:1054C00003F3DA43214B1B681340204A13607B68C7
:1054D000B3F1FF3F0AD13B68002B07D01A4B1B6882
:1054E000043319461A48FFF775FA26E0FA687B6814
:1054F0001344BB60144B1B68BA685A60BA68FB68F7
:105500009A4209D2134B1A680F4B1B680433194691
:105510001046FFF783FA10E00F4B1A680A4B1B681E
:10552000043319461046FFF779FA0C4B1B68BA682A
:105530009A4202D2094ABB68136000BF1037BD46C9
:1055400080BD00BFFC050020F804002000060020FC
:10555000E4050020B4050020B00500201806002056
:1055600080B485B000AFF860B9607A60FB68043B36
:10557000FB60FB684FF080721A60FB68043BFB60C5
:10558000BB6823F00102FB681A60FB68043BFB6008
:105590000C4AFB681A60FB68143BFB607A68FB6886
:1055A0001A60FB68043BFB60FB686FF002021A6044
:1055B000FB68203BFB60FB6818461437BD465DF86E
:1055C000047B7047C955000880B485B000AF002344
:1055D0007B60124B1B68B3F1FF3F0AD04FF05003C2
:1055E00083F31188BFF36F8FBFF34F8FFB6000BF52
:1055F000FEE74FF0500383F31188BFF36F8FBFF3C3
:105600004F8FBB6000BF00BF7B68002BFCD000BF8A
:1056100000BF1437BD465DF8047B70470C000020C6
:10562000074B19680868B0E8F04F80F30988BFF3AA
:105630006F8F4FF0000080F311887047AFF3008048
:10564000F804002000BF00BF08480068006880F32D
:1056500008884FF0000080F3148862B661B6BFF38B
:105660004F8FBFF36F8F00DF00BF00BF08ED00E07A
:1056700080B586B000AF464B1B68464A93420AD1BC
:105680004FF0500383F31188BFF36F8FBFF34F8F39
:105690003B6100BFFEE73E4B1B683F4A93420AD185
:1056A0004FF0500383F31188BFF36F8FBFF34F8F19
:1056B000FB6000BFFEE7394B7B617B691B78DBB287
:1056C0007B607B69FF221A707B691B78DBB2FB7001
:1056D000FB78DBB203F05003DAB2314B1A70314B76
:1056E00007221A6009E02F4B1B68013B2D4A13600B
:1056F000FB78DBB25B00DBB2FB70FB78DBB203F064
:105700008003802BEFD0274B1B68C3F10703042BCA
:105710000AD04FF0500383F31188BFF36F8FBFF3AC
:105720004F8FBB6000BFFEE71E4B1B681B021D4A6C
:1057300013601C4B1B6803F4E0631A4A13607B6818
:10574000DAB27B691A70184B1B68174A43F470036E
:105750001360154B1B68144A43F07043136000F04C
:10576000DDF8124B00221A6000F0FCF8104B1B68A9
:105770000F4A43F040431360FFF766FFFFF73AFD1F
:10578000FFF722FF002318461837BD4680BD00BF33
:1057900000ED00E071C20F4170C20F4100E400E073
:1057A000240600202806002020ED00E00C00002048
:1057B00034EF00E080B483B000AF4FF0500383F3C8
:1057C0001188BFF36F8FBFF34F8F7B6000BF0F4B0C
:1057D0001B6801330D4A13600C4B1B68012B0FD162
:1057E0000B4B1B68DBB2002B0AD04FF0500383F346
:1057F0001188BFF36F8FBFF34F8F3B6000BFFEE791
:1058000000BF0C37BD465DF8047B70470C000020DC
:1058100004ED00E080B483B000AF124B1B68002B96
:105820000AD14FF0500383F31188BFF36F8FBFF39A
:105830004F8F7B6000BFFEE70A4B1B68013B094AA4
:105840001360084B1B68002B05D100233B603B68AD
:1058500083F3118800BF00BF0C37BD465DF8047BA1
:10586000704700BF0C000020000000000000000096
:10587000EFF30980BFF36F8F154B1A681EF0100FFE
:1058800008BF20ED108A20E9F04F10602DE90900D3
:105890004FF0500080F31188BFF34F8FBFF36F8F2D
:1058A000FFF7A8FC4FF0000080F3118809BC1968CD
:1058B0000868B0E8F04F1EF0100F08BFB0EC108A77
:1058C00080F30988BFF36F8F704700BFAFF300808C
:1058D000F804002000BF00BF80B582B000AF4FF0D9
:1058E000500383F31188BFF36F8FBFF34F8F7B603B
:1058F00000BFFFF7C7FB0346002B03D0064B4FF05A
:1059000080521A6000233B603B6883F3118800BF1C
:1059100000BF0837BD4680BD04ED00E080B400AF95
:105920000B4B00221A600B4B00221A600A4B1B68BB
:105930000A4AA2FB03239B09094A013B1360044B5B
:1059400007221A6000BFBD465DF8047B704700BFA8
:1059500010E000E018E000E000000020D34D6210ED
:1059600014E000E0DFF80C00016841F47001016010
:10597000704700BF88ED00E080B58AB000AF786066
:105980000023FB61FFF7D4FA5B4B1B68002B01D1AE
:1059900000F020F9594B1A687B681340002B40F047
:1059A00093807B68002B1DD008227B6813447B60AA
:1059B0007B6803F00703002B14D07B6823F00703F8
:1059C00008337B607B6803F00703002B0AD04FF09D
:1059D000500383F31188BFF36F8FBFF34F8F7B6149
:1059E00000BFFEE77B68002B6ED0454B1B687A68D2
:1059F0009A4269D8434B3B62424B1B687B6204E08E
:105A00007B6A3B627B6A1B687B627B6A5B687A6845
:105A10009A4203D97B6A1B68002BF1D1364B1B6875
:105A20007A6A9A4250D03B6A1B6808221344FB6191
:105A30007B6A1A683B6A1A607B6A5A687B68D21A6A
:105A400008235B009A421FD97A6A7B681344BB61C2
:105A5000BB6903F00703002B0AD04FF0500383F318
:105A60001188BFF36F8FBFF34F8F3B6100BFFEE71D
:105A70007B6A5A687B68D21ABB695A607B6A7A680B
:105A80005A60B86900F008F91D4B1A687B6A5B68B8
:105A9000D31A1B4A13601A4B1A681B4B1B689A4295
:105AA00003D2174B1B68184A13607B6A5A68134B62
:105AB0001B681A437B6A5A607B6A00221A60134B88
:105AC0001B680133114A1360FFF740FAFB6903F0CA
:105AD0000703002B0AD04FF0500383F31188BFF364
